:020000040800F2
:1000000090070020CD010008190F000861070008C3
:10001000150F000819030008AF18000800000000C1
:100020000000000000000000000000003112000885
:100030001D030008000000008D0F00085514000883
:10004000E7010008E7010008E7010008E7010008F0
:10005000E7010008E7010008E7010008E7010008E0
:10006000E7010008E7010008E7010008E7010008D0
:10007000E7010008E7010008E7010008E7010008C0
:10008000E7010008E7010008E7010008E7010008B0
:10009000E7010008E7010008E7010008E7010008A0
:1000A000E7010008E7010008E7010008E701000890
:1000B000E7010008E7010008E7010008E701000880
:1000C000E7010008E7010008E7010008E701000870
:1000D000E7010008B914000841150008E70100080D
:1000E000E7010008E7010008E7010008E701000850
:1000F000E7010008E7010008E7010008E701000840
:10010000E7010008E7010008E7010008E70100082F
:10011000E7010008E7010008E7010008E70100081F
:10012000E7010008E7010008E7010008E70100080F
:1001300000F002F800F03AF80AA090E8000C8244BF
:100140008344AAF10107DA4501D100F02FF8AFF29C
:10015000090EBAE80F0013F0010F18BFFB1A43F0A5
:1001600001031847382B0000582B0000103A24BF19
:1001700078C878C1FAD8520724BF30C830C144BF0C
:1001800004680C607047000000230024002500264E
:10019000103A28BF78C1FBD8520728BF30C148BFEA
:1001A0000B6070471FB51FBD10B510BD00F06EF895
:1001B0001146FFF7F7FF01F0D5FB00F0A0F803B4FC
:1001C000FFF7F2FF03BC01F074FB00000948804711
:1001D00009480047FEE7FEE7FEE7FEE7FEE7FEE729
:1001E000FEE7FEE7FEE7FEE704480549054A064B41
:1001F00070470000591400083101000890010020E8
:10020000900700209003002090030020704700001A
:100210000FB4044910B503AA029800F009F810BC05
:100220005DF814FB3000002070477047704770473E
:10023000074B70B50D467B4400F011F80446284684
:1002400000F020F810B14FF0FF3070BD204670BDB7
:100250000F17000001694A1C02610878704700B559
:100260008FB0CDE901310021059105497944CDE9EF
:1002700003101146684600F02EF80FB000BD0000D4
:10028000E5FFFFFF007B00F080007047754600F03F
:100290003FF8AE4605006946534620F00700854604
:1002A00018B020B5FFF7A0FFBDE820404FF00006D2
:1002B0004FF000074FF000084FF0000B21F007014E
:1002C000AC46ACE8C009ACE8C009ACE8C009ACE891
:1002D000C0098D4670472DE9F04106460024D6E955
:1002E0000170F5688046304603E04146B847641C1B
:1002F0003046A8470028F8D12046BDE8F08110B567
:100300000446AFF300802046BDE81040FFF757BF1A
:10031000004870472C01002000BFFEE770472DE920
:10032000F04102460025002600200023002400277B
:1003300091F803C00CF00F0591F803C00CF0100CFD
:10034000BCF1000F03D091F802C04CEA050591F80A
:1003500000C0BCF1000F31D0146800202BE04FF03A
:10036000010C0CFA00F3B1F800C00CEA03069E423F
:1003700020D183004FF00F0C0CFA03F7BC4305FAB1
:1003800003FC4CEA040491F803C0BCF1280F06D129
:100390004FF0010C0CFA00FCC2F814C00AE091F80E
:1003A00003C0BCF1480F05D14FF0010C0CFA00FC62
:1003B000C2F810C0401C0828D1D31460B1F800C0A6
:1003C000BCF1FF0F34DD546800202EE000F1080C72
:1003D0004FF0010808FA0CF3B1F800C00CEA03066C
:1003E0009E4221D183004FF00F0C0CFA03F7BC435F
:1003F00005FA03FC4CEA040491F803C0BCF1280F91
:1004000005D100F1080C08FA0CF8C2F8148091F834
:1004100003C0BCF1480F07D100F1080C4FF00108F0
:1004200008FA0CF8C2F81080401C0828CED354609B
:10043000BDE8F081416170472DE9FC5F05468846C3
:1004400091469A46DDF830B00095052001900024D1
:100450005FE004EB0410374911F810009BF800101E
:10046000884253D104EB0410324901EB400040783C
:100470009BF80110884249D108F10F0083B205F1C1
:100480000F0082B24146284600F050FB00263BE0B8
:10049000002734E00D9890B904EB0410254901EBD6
:1004A0004000801C805D80213941084018B14846D9
:1004B00000F0E6FC21E0504600F0E2FC1DE01E48A2
:1004C000A0F8009004EB04101A4901EB4000801CD6
:1004D000805D80213941084018B14146284600F02E
:1004E000BDF9681C85B20098281A102805D1009D16
:1004F00008F101001FFA80F803E0781CC7B2082F4A
:10050000C8DB00BF701CC6B2202EC1DB00BF601C60
:1005100084B2019884429CDB08484088401E83B224
:1005200006480088401E82B20021084600F0FEFA0C
:10053000BDE8FC9F402800084C0000201C01002062
:100540002DE9FC5F0546884691469A46DDF830B0B5
:1005500000950B200190002467E004EB840000EB81
:1005600044103A4911F810009BF80010884259D104
:1005700004EB840000EB4410344901EB4000407868
:100580009BF8011088424DD108F1170083B205F1A4
:10059000170082B24146284600F0C8FA00263FE024
:1005A000002738E00D98A0B904EB840000EB44105C
:1005B000264901EB4000801C805D802139410840C4
:1005C00018B1484600F05CFC23E0504600F058FCAF
:1005D0001FE01F48A0F8009004EB840000EB4410DB
:1005E0001A4901EB4000801C805D802139410840A0
:1005F00018B14146284600F031F9681C85B20098D0
:10060000281A182805D1009D08F101001FFA80F86A
:1006100003E0781CC7B2082FC4DB00BF701CC6B251
:10062000482EBDDB00BF601C84B20198844294DB7D
:1006300008484088401E83B206480088401E82B2A7
:100640000021084600F072FABDE8FC9FEA28000885
:100650004C0000201C0100202DE9FC5F0546884667
:1006600091469A46DDF830B00095012001900024B3
:100670005FE004EB8410374911F810009BF800107C
:10068000884253D104EB8410324901EB400040789A
:100690009BF80110884249D108F11F0083B205F18F
:1006A0001F0082B24146284600F040FA00263BE097
:1006B000002734E00D9890B904EB8410254901EB34
:1006C0004000801C805D80213941084018B14846B7
:1006D00000F0D6FB21E0504600F0D2FB1DE01E48A2
:1006E000A0F8009004EB84101A4901EB4000801C34
:1006F000805D80213941084018B14146284600F00C
:10070000ADF8681C85B20098281A202805D1009DF4
:1007100008F101001FFA80F803E0781CC7B2082F27
:10072000C8DB00BF701CC6B2802EC1DB00BF601CDE
:1007300084B2019884429CDB08484088401E83B202
:1007400006480088401E82B20021084600F0EEF9FB
:10075000BDE8FC9F182C00084C0000201C01002064
:1007600000BFFEE770B506460F484088401E83B2C2
:100770000D480088401E82B20021084600F0D6F9DC
:1007800000240CE0002504E0304600F079FB681CF2
:1007900085B205484088A842F6DC601C84B2024855
:1007A0000088A042EEDC70BD1C0100202DE9FF4F47
:1007B00085B081468A460020049003900798A0EBFC
:1007C00009050898A0EB0A06CDF80890CDF804A01A
:1007D000002D01DD012705E00DB9002702E04FF0F3
:1007E000FF376D42002E02DD4FF0010806E016B91A
:1007F0004FF0000802E04FF0FF387642B54201DDCD
:100800002C4600E034464FF0000B21E0019A91B2F3
:10081000029A90B200F022F80498284404900398B9
:10082000304403900498A04205DD0498001B049016
:100830000298384402900398A04205DD0398001BFB
:1008400003900198404401900BF101001FFA80FBD6
:10085000601C8345DADD09B0BDE8F08F30B5044691
:100860000D462946204600F042F90248008800F073
:1008700007FB30BD4C0000202DE9F04104460D4639
:1008800016461F462B46324629462046FFF78EFF66
:100890003B46224629462046FFF788FF3B46324624
:1008A00039462046FFF782FF3B463246294630460E
:1008B000FFF77CFFBDE8F08110B500F0F3FB00F01E
:1008C0000EF9112000F0FAFA782001F017F8B120A3
:1008D00000F0F4FA012000F0B9FA2C2000F0B6FA8A
:1008E0002D2000F0B3FAB22000F0E8FA012000F069
:1008F000ADFA2C2000F0AAFA2D2000F0A7FAB320C0
:1009000000F0DCFA012000F0A1FA2C2000F09EFAA1
:100910002D2000F09BFA012000F098FA2C2000F026
:1009200095FA2D2000F092FAB42000F0C7FA0720C3
:1009300000F08CFAC02000F0C1FAA22000F086FA84
:10094000022000F083FA842000F080FAC12000F039
:10095000B5FAC52000F07AFAC22000F0AFFA0A20FA
:1009600000F074FA002000F071FAC32000F0A6FA3B
:100970008A2000F06BFA2A2000F068FAC42000F008
:100980009DFA8A2000F062FAEE2000F05FFAC5209E
:1009900000F094FA0E2000F059FA362000F08EFA9A
:1009A000C82000F053FAE02000F088FA0F2000F091
:1009B0004DFA1A2000F04AFA0F2000F047FA1820EA
:1009C00000F044FA2F2000F041FA282000F03EFA0F
:1009D000202000F03BFA222000F038FA1F2000F01F
:1009E00035FA1B2000F032FA232000F02FFA3720CE
:1009F00000F02CFA002000F029FA072000F026FA77
:100A0000022000F023FA102000F020FAE12000F08C
:100A100055FA0F2000F01AFA1B2000F017FA0F20E9
:100A200000F014FA172000F011FA332000F00EFA4B
:100A30002C2000F00BFA292000F008FA2E2000F0FC
:100A400005FA302000F002FA302000F0FFF93920DA
:100A500000F0FCF93F2000F0F9F9002000F0F6F971
:100A6000072000F0F3F9032000F0F0F9102000F067
:100A7000EDF92A2000F022FA002000F0E7F900202A
:100A800000F0E4F9002000F0E1F97F2000F0DEF949
:100A90002B2000F013FA002000F0D8F9002000F01D
:100AA000D5F9002000F0D2F99F2000F0CFF9F02016
:100AB00000F004FA012000F0C9F9F62000F0FEF978
:100AC000002000F0C3F93A2000F0F8F9052000F00A
:100AD000BDF9292000F0F2F900F014F810BD10B5AE
:100AE000642000F00BFF322000F008FF10BD30B58D
:100AF00004460D462B4622462946204600F016F8AD
:100B000030BD000000B52C20074908810020887105
:100B10008020088048802A2048812B208881C82195
:100B2000362000F0EDF900BD1C010020F0B50446B0
:100B30000D4616461F461349488900F0BFF920129A
:100B400000F084F9A11CC8B200F080F9301200F066
:100B50007DF9B11CC8B200F079F90A49888900F022
:100B6000ADF9281200F072F9E91CC8B200F06EF974
:100B7000381200F06BF9F91CC8B200F067F900F008
:100B8000B7F9F0BD1C0100202DE9FF4F83B081466D
:100B90008A469346DDE91064414800880290A6F138
:100BA0002000C6B204EBD47009EB6000401E82B294
:100BB0000AEB0400401E83B2514648460194FFF7F9
:100BC000B5FF129860BB002527E00C2C07D106EB7F
:100BD0004600344901EB800010F8058004E03248FB
:100BE00000EB061010F8058000270FE008F0010068
:100BF00020B10BF0FF0000F029F903E00699C8B21C
:100C000000F024F94FEA6808781CC7B204EBD471ED
:100C1000B7EB610FEADB681CC5B2A542D5DB2DE05E
:100C2000002529E00C2C07D106EB46001D4901EBFD
:100C3000800010F8058004E01B4800EB061010F857
:100C40000580002711E01648A0F800B008F0010068
:100C500038B10AEB050291B209EB070290B2FFF737
:100C6000FDFD4FEA6808781CC7B204EBD471B7EBFE
:100C7000610FE8DB681CC5B2A542D3DB08490298C6
:100C800008800A484088401E83B208480088401EF9
:100C900082B200210846FFF749FF07B0BDE8F08F98
:100CA0004C0000209C1B0008102000081C010020A4
:100CB0002DE9FF4F83B0074691461E46109C4FF02A
:100CC000000A002543E0701B401EC1B20A2000F05C
:100CD00009FFB9FBF0F00A21B0FBF1F201FB1208A9
:100CE000BAF1000F1BD1701EA84218DDB8F1000F39
:100CF00013D101202021A346CDE90014029004EB7A
:100D0000DB71491001FB057188B213490B88134947
:100D10000A880499FFF738FF17E04FF0010A012114
:100D200008F13000C0B2A346CDE90141009004EBC8
:100D3000DB71491001FB057188B207490B8807492F
:100D40000A880499FFF720FF00BF681CC5B2B542AE
:100D5000B9DB07B0BDE8F08F4E0000204C0000204A
:100D60002DE9FE4F04460E4691460C9F34480088FC
:100D7000029001940096002557E032480088401EFA
:100D8000A04204DB2F484088401EB04201DABDE893
:100D9000FE8F3D783A2D01D10A2506E02E2D01D196
:100DA0000B2502E0A5F13000C5B201944FF0000818
:100DB0002DE005EB4500244901EB001010F808A0D8
:100DC0004FF0000B1BE01E48A0F800900AF08000D6
:100DD00018B131462046FFF741FD4FF6FF7000EA9B
:100DE0004A0A601C84B20198201A0C2803D1019C85
:100DF000701C86B206E00BF1010000F0FF0BBBF1A6
:100E0000080FE0DB00BF08F1010000F0FF08B8F1B7
:100E1000300FCEDB0A2D03DA04F1100084B202E0B9
:100E200004F1080084B2009E7F1C38787E2802DC22
:100E300038782028A1DA02490298088000BFA6E786
:100E40004C0000201C0100200026000810B50446BC
:100E50004FF4805007490860402007490861214647
:100E6000064800F0BDF94FF480500249091F0860A0
:100E700010BD0000140C014000100140003800407B
:100E800010B504464FF480500949086040200949D4
:100E900008612112084800F0A3F9E1B2064800F009
:100EA0009FF94FF480500249091F086010BD0000EF
:100EB000140C0140001001400038004010B50446F9
:100EC0004FF4805007490860402007494861E1B26B
:100ED000064800F085F94FF480500249091F086068
:100EE00010BD0000140C014000100140003800400B
:100EF00000B502490889FFF7E1FF00BD1C01002091
:100F000030B505460C462846FFF7D8FFE0B2FFF79C
:100F10009DFF30BD00BFFEE77047000070B50021A7
:100F200000230F22C47804B3154C246804F4E06451
:100F3000C4F5E064210AC1F10403CA40447804FA0C
:100F400003F184781440214309010E4C0678A15521
:100F5000047804F01F050124AC4005786D11AD0044
:100F600005F1E025C5F8004109E0047804F01F050B
:100F70000124AC40044D0678761145F8264070BD3A
:100F80000CED00E000E400E080E100E070470000CC
:100F900029B1064AD2690243044BDA6104E0034AEC
:100FA000D2698243014BDA617047000000100240B1
:100FB00029B1064A92690243044B9A6104E0034A4C
:100FC00092698243014B9A61704700000010024011
:100FD00030B500210022002400232D4D6D6805F05E
:100FE0000C0121B1042905D0082923D105E0294DA0
:100FF000056022E0274D05601FE0254D6D6805F472
:101000007012234D6D6805F48034022505EB924281
:101010001CB9214D554305600BE01D4D6D6805F46D
:1010200000351DB11C4D5543056002E0194D554377
:10103000056002E0174D056000BF00BF144D6D68EC
:1010400005F0F0010909154D6B5C0568DD40456050
:101050000F4D6D6805F4E061090A104D6B5C456841
:10106000DD4085600A4D6D6805F46051C90A0B4D7D
:101070006B5C4568DD40C560054D6D6805F4404119
:10108000890B074D6B5CC568B5FBF3F5056130BD99
:101090000010024000127A0000093D001C000020F0
:1010A0002C00002000B587B001211920FFF780FF38
:1010B0004FF42040ADF8040003208DF806001820FE
:1010C0008DF8070001A92E48FFF729F94FF4804059
:1010D000ADF8040048208DF8070003208DF80600C5
:1010E00001A92748FFF71BF94FF48050ADF8040021
:1010F00003208DF8060010208DF8070001A9204874
:10110000FFF70DF94020ADF8040003208DF806002C
:1011100010208DF8070001A91A48FFF700F94FF4D5
:1011200080511748FFF786F940211648FFF782F9EA
:1011300001218803FFF72CFF0020ADF808004FF4D1
:101140008270ADF80A000020ADF80C00ADF80E007A
:10115000ADF810004FF40070ADF812000020ADF8AB
:101160001400ADF816000720ADF8180002A90648D3
:1011700000F018F80121044800F008F807B000BD9D
:10118000000C0140001001400038004021B10288ED
:1011900042F04002028004E002884FF6BF731A401A
:1011A0000280704710B50022028802F441520B8879
:1011B0004C8823438C882343CC8823430C892343C6
:1011C0004C8923438C892343CC8923431A430280CF
:1011D000838B4FF2FF74234083830B8A038210BDFD
:1011E00003460A46002105E0491CB1F5FA6F01D912
:1011F000002070470D48008800F002000028F3D05E
:101200000A48001D0280002105E0491CB1F5FA6F73
:1012100001D90020EDE70548008800F00100002812
:10122000F3D00248001D0088C0B2E2E70838004051
:10123000704710B500F002F810BD00000CB500209A
:10124000019000903348006840F4803031490860D4
:1012500000BF3048006800F4003000900198401C46
:101260000190009818B90198B0F5A06FF1D1294804
:10127000006800F4003010B10120009001E000206F
:1012800000900098012843D12348006840F01000E6
:10129000214908600846006820F0030008600846FD
:1012A000006840F0020008601A4840681949486028
:1012B0000846406848600846406840F480604860DE
:1012C0000846406820F47C1048600846406840F4B6
:1012D000E81048600846006840F08070086000BF71
:1012E0000C48006800F000700028F9D009484068F8
:1012F00020F00300074948600846406840F00200BB
:10130000486000BF0348406800F00C000828F9D18D
:101310000CBD000000100240002002402DE9FF4FEC
:1013200083B0064688469146DDE91147109DB246D6
:101330004FF0000B73E0BBF1000F42D104EBD4710E
:10134000394A1288A2EB6101B14204DB364949886F
:10135000091B414502DA07B0BDE8F08F28788028E4
:1013600002DD4FF0010B5AE028780D2806D108EB7A
:1013700004001FFA80F856466D1C20E00C2C01D0AA
:10138000102C0FD128788DE891004A46414630460E
:10139000069BFFF7F9FB204604EBD07106EB6101D9
:1013A0008EB20CE0102128788DE883004A46414631
:1013B0003046069BFFF7E8FB06F1080086B26D1C7D
:1013C0002DE019480088001BB04204DB1648408815
:1013D000001B404500DABEE74FF0000B202C08D17F
:1013E000CDE900574A4641463046069BFFF734F99F
:1013F00012E0182C08D1CDE900574A464146304644
:10140000069BFFF79DF807E0CDE900574A464146A5
:101410003046069BFFF710F8AD1C301986B22878CD
:10142000002888D100BF96E71C010020042808D1BD
:101430004FF0E021096941F004014FF0E022116111
:1014400007E04FF0E021096921F004014FF0E022AC
:10145000116170477047000010B51348006840F0F4
:1014600001001149086008464068104908400E49CB
:101470004860084600680E4908400B490860084665
:10148000006820F4802008600846406820F4FE00D0
:1014900048604FF41F008860FFF7CBFE4FF00060FC
:1014A0000449086010BD0000001002400000FFF871
:1014B000FFFFF6FE08ED00E010B540F225511D4893
:1014C00000F034F910B31B4800F0ECF9C4B21A482C
:1014D000008800F40040C8B91748008800F4804034
:1014E00060B10A2C03D000201349088020E0124884
:1014F000008840F400401049088019E00D2C06D106
:101500000D48008840F480400B49088010E00A48EC
:101510000088C0F30D0009490C5407480088401C9E
:101520000549088008460088C72801DD002008809A
:1015300010BD00000038014034000020540000209D
:1015400010B540F225513D4800F0F0F8002874D065
:101550003A4800F0A7F93A4908700846007831285F
:101560000BD1364800F09EF93649087008460078DD
:10157000312802D1012034490860314800783228EE
:101580000BD12E4800F08EF92E49087008460078DD
:10159000322802D102202C490860294800783328DB
:1015A0000BD1264800F07EF92649087008460078DD
:1015B000332802D1032024490860214800783428C8
:1015C0000BD11E4800F06EF91E49087008460078DD
:1015D000342802D104201C4908601C4800681A49BC
:1015E0000968884229D018480068012806D00228D6
:1015F0000BD0032810D004281DD114E0012013497A
:10160000086013A0FEF704FE16E002200F490860F0
:1016100011A0FEF7FDFD0FE003200C49086010A0AB
:10162000FEF7F6FD08E00420084908600EA0FEF76A
:10163000EFFD01E001E000BF00BF10BD004400402D
:101640003B0000203C00002040000020440000201F
:10165000C3DEC7A900000000BEC6BEAB000000008C
:10166000BFDAD5D600000000B7C0BBA4B7FE0000AB
:1016700010B586B0044601214804FFF789FC01211A
:101680000420FFF795FC0420ADF8140003208DF82A
:10169000160018208DF8170005A91C48FEF73FFE1C
:1016A0000820ADF8140004208DF8170005A917488C
:1016B000FEF735FE26208DF8100004208DF811006D
:1016C00000208DF8120001208DF8130004A8FFF708
:1016D00025FC00940020ADF80400ADF80600ADF83C
:1016E0000800ADF80C000C20ADF80A006946084867
:1016F00000F06CF8012240F22551054800F040F856
:101700000121034800F006F806B010BD00080140B2
:101710000044004021B1828942F40052828104E0F9
:1017200082894DF6FF731A408281704770B5024678
:10173000002400230025002040F66A16B14200D1A3
:1017400000BFC1F3421501F01F03012606FA03F39F
:10175000012D02D19689334006E0022D02D1168A6E
:10176000334001E0968A33400C12012606FA04F455
:101770001688344013B10CB1012000E0002070BD88
:10178000F0B50346002400260025002040F66A1725
:10179000B94200D100BF1846C1F3421401F01F0640
:1017A000012707FA06F5012C01D10C3004E0022CC8
:1017B00001D1103000E014301AB107682F430760E0
:1017C00002E00768AF430760F0BD00002DE9F04775
:1017D00086B005460E460024A24600BFA14600275B
:1017E000B08900B100BF2F462C8A4CF6FF70044030
:1017F000F08804432C82AC894EF6F3100440B08884
:1018000031890843718908430443AC81AC8A4FF69F
:10181000FF400440B0890443AC8201A8FFF7D8FB25
:101820001F48874202D1DDF810A001E0DDF80CA0CE
:10183000A88900F4004040B10AEBCA0000EB0A108E
:1018400031684900B0FBF1F807E00AEBCA0000EB91
:101850000A1031688900B0FBF1F86420B8FBF0F0A1
:1018600004012009642101FB1089A88900F40040CB
:1018700040B1322000EBC900B0FBF1F000F00700EE
:10188000044308E0322000EB09106421B0FBF1F0C2
:1018900000F00F0004432C8106B0BDE8F087000083
:1018A0000038014001468888C0F30800704700BF37
:1018B000FEE700BF7047000010B56FF00400FFF7AF
:1018C000B5FD0A4800680A49B0FBF1F00949087003
:1018D0000846007800EB4001C1EBC0104FF6FF71E5
:1018E00001EAC0000449088010BD00000800002083
:1018F00000127A00480000204A0000200146114AE8
:1019000012884A434FF0E0235A6100229A611A4636
:10191000126942F001021A6100BF4FF0E022106923
:1019200000F001021AB100F48032002AF5D04FF025
:10193000E022126922F001024FF0E0231A61002236
:101940009A6170474A00002000BF054A128802F0E1
:101950004002002AF9D0C2B2014B1B1D1A80704709
:10196000003801400EB54FF4165000F0C7F84FF4A0
:10197000E130FFF77DFEFFF76FFDFFF79DFFFEF7FC
:101980009BFF0020FEF7EEFE4FF6FF703E490880F9
:101990007F231A4600210846FEF76EFF0020102123
:1019A0003AA24FF6FF73CDE90021029002460521CD
:1019B0002020FFF7B3FC0120182137A24FF6FF7358
:1019C000CDE9002102901A4619210520FFF7A6FC57
:1019D0000120182134A24FF6FF73CDE900210290B7
:1019E0001A4619213F20FFF7BBF9012018212FA229
:1019F0004FF6FF73CDE9002102901A4632210520EF
:101A0000FFF78CFC012018212CA24FF6FF73CDE9C3
:101A1000002102901A4632213F20FFF7A1F9012050
:101A2000182127A24FF6FF73CDE9002102901A4634
:101A30004B210520FFF772FC012018211AA24FF656
:101A4000FF73CDE9002102901A464B213F20FFF79A
:101A500087F9012018211EA24FF6FF73CDE900215E
:101A600002901A4664210520FFF758FC0BE0142071
:101A70001B4908601020082300900846692102686D
:101A80001220FFF715F9F2E74C000020CFB5CDB3D7
:101A9000BCE0BFD800000000CEC2B6C83A2020206B
:101AA0002020A1E600000000332E3200CAAAB6C8EA
:101AB0003A2020202020A3A500000000322E300074
:101AC000B5E7D1B93A2020202020A3D6000000009D
:101AD000B5E7C1F73A2020202020A3C10000000074
:101AE0000400002010B50246012000E050430B1E08
:101AF000A1F10104E1B2F9D110BD000010B586B02A
:101B00000446012144F20400FFF752FA4FF400703A
:101B1000ADF8140003208DF8160018208DF817007A
:101B200005A91C48FEF7FBFB4FF48060ADF81400DC
:101B300004208DF8170005A91648FEF7F0FB2520B4
:101B40008DF8000003208DF801008DF802000120BF
:101B50008DF803006846FFF7E1F901940020ADF825
:101B60000800ADF80A00ADF80C00ADF810000C202C
:101B7000ADF80E0001A90848FFF728FE012240F247
:101B800025510548FFF7FCFD01210348FFF7C2FD81
:101B900006B010BD00080140003801400000000000
:101BA000000000000000000000000404040404041D
:101BB0000004000000140A0A0000000000000000F9
:101BC000000014143F140A3F0A0A000000041E1506
:101BD00005060C14150F0400000012150D0A142C34
:101BE0002A1200000000040A0A1E1515093600001A
:101BF00000020201000000000000000000201008A8
:101C0000080808080810200000020408080808084E
:101C10000804020000000004150E0E150400000068
:101C200000000404041F040404000000000000007D
:101C3000000000000002020100000000001F000080
:101C40000000000000000000000000000002000092
:101C500000100808080404020202010000000E112E
:101C600011111111110E00000000040604040404F7
:101C7000040E000000000E1111080402011F0000F4
:101C800000000E11100C1010110E00000000080CC6
:101C90000A0A091E0818000000001F01010F101099
:101CA000110E000000000E09010F1111110E0000AD
:101CB00000001F09080404040404000000000E11C1
:101CC000110E1111110E000000000E1111111E1045
:101CD000120E0000000000000400000000040000DC
:101CE00000000000000400000004040000201008B0
:101CF0000402040810200000000000001F00001F64
:101D00000000000000020408102010080402000077
:101D100000000E11110804040004000000000E1160
:101D20001915151D011E0000000004040C0A0A1EEE
:101D30001233000000000F12120E1212120F0000D8
:101D400000001E1101010101110E000000000F1220
:101D500012121212120F000000001F120A0E0A02C5
:101D6000121F000000001F120A0E0A0202070000E4
:101D700000001C1201013911120C00000000331286
:101D8000121E12121233000000001F040404040487
:101D9000041F000000003E080808080808090700A2
:101DA000000037120A060A0A123700000000070274
:101DB00002020202223F000000001B1B1B1B151524
:101DC0001515000000003B1216161A1A1217000013
:101DD00000000E1111111111110E000000000F1260
:101DE000120E02020207000000000E11111111175D
:101DF000190E180000000F12120E0A1212370000FE
:101E000000001E1101060810110F000000001F1530
:101E100004040404040E0000000033121212121213
:101E2000120C000000003312120A0A0C0404000015
:101E300000001515150E0A0A0A0A000000001B0A08
:101E40000A04040A0A1B000000001B0A0A04040416
:101E5000040E000000001F0908040402121F000005
:101E6000001C04040404040404041C000002020214
:101E70000404080808100000000E080808080808F4
:101E800008080E0000040A00000000000000000026
:101E900000000000000000000000003F00040000FF
:101EA000000000000000000000000000000C121CF8
:101EB000123C000000000302020E1212120E00007B
:101EC00000000000001C1202021C0000000018109C
:101ED000101C1212123C000000000000000C121E28
:101EE000021C000000003804041E0404041E00004C
:101EF00000000000003C120C021E221C0000030225
:101F0000020E121212370000000004000006040442
:101F1000040E000000000800000C0808080808076C
:101F200000000302023A0A0E123700000000070404
:101F300004040404041F000000000000000F151535
:101F40001515000000000000000F121212370000EB
:101F500000000000000C1212120C00000000000033
:101F6000000F1212120E020700000000001C1212D5
:101F7000121C103800000000001B060202070000BF
:101F800000000000001E020C101E000000000004F3
:101F9000040E04040418000000000000001B1212CC
:101FA000123C0000000000000037120A0C04000080
:101FB000000000000015150E0A0A000000000000D5
:101FC000001B0A040A1B0000000000000037120A70
:101FD0000C04040300000000001E0804041E00009E
:101FE0000018080808040808080818000808080865
:101FF000080808080808080800060404040804047F
:102000000404060002251800000000000000000083
:1020100000000000000000000000000000000000C0
:102020000000000808080808080800001818000048
:1020300000486C24120000000000000000000000B6
:102040000000002424247F1212127F1212120000BA
:102050000000081C2A2A0A0C1828282A2A1C08080A
:1020600000000022251515152A585454542200004A
:102070000000000C1212120A76252911916E000040
:10208000000606040300000000000000000000003D
:102090000040201010080808080808101020400010
:1020A00000020408081010101010100808040200A4
:1020B0000000000008086B1C1C6B080800000000F2
:1020C00000000000080808087F0808080800000051
:1020D00000000000000000000000000006060403ED
:1020E0000000000000000000FE00000000000000F2
:1020F00000000000000000000000000006060000D4
:102100000000804040202010100808040402020053
:102110000000001824424242424242422418000079
:10212000000000080E08080808080808083E00001B
:102130000000003C4242422020100804427E000081
:102140000000003C4242201820404042221C000077
:10215000000000203028242422227E202078000045
:102160000000007E0202021A26404042221C0000AB
:10217000000000382402021A2642424224180000BD
:102180000000007E2222101008080808080800003D
:102190000000003C4242422418244242423C0000DB
:1021A000000000182442424264584040241C0000B1
:1021B00000000000000018180000000018180000BF
:1021C00000000000000000080000000000080804F3
:1021D0000000004020100804020408102040000005
:1021E0000000000000007F0000007F0000000000F1
:1021F0000000000204081020402010080402000023
:102200000000003C42424640201010001818000018
:102210000000001C225A555555552D42221C000025
:102220000000000808181414243C224242E7000071
:102230000000001F2222221E22424242221F0000D2
:102240000000007C4242010101010142221C000009
:102250000000001F2242424242424242221F00002E
:102260000000003F4212121E12120242423F0000C2
:102270000000003F4212121E12120202020700006A
:102280000000003C2222010101712122221C0000D9
:10229000000000E7424242427E42424242E70000E2
:1022A0000000003E0808080808080808083E00006A
:1022B0000000007C10101010101010101010110FE2
:1022C0000000007722120A0E0A1212222277000062
:1022D000000000070202020202020202427F000026
:1022E00000000077363636362A2A2A2A2A6B000062
:1022F000000000E346464A4A5252526262470000DA
:102300000000001C2241414141414141221C00008A
:102310000000003F424242423E0202020207000029
:102320000000001C2241414141414D53321C6000DC
:102330000000003F4242423E1212222242C70000E9
:102340000000007C4242020418204042423E00004D
:102350000000007F4908080808080808081C000059
:10236000000000E74242424242424242423C0000F8
:10237000000000E742422224241414180808000038
:102380000000006B49494949555536222222000078
:10239000000000E7422424181818242442E7000013
:1023A000000000772222141408080808081C000006
:1023B0000000007E2120101008040442423F00006B
:1023C00000780808080808080808080808087800BD
:1023D00000000202040408080810102020204040D9
:1023E000001E1010101010101010101010101E00F1
:1023F0000038440000000000000000000000000061
:10240000000000000000000000000000000000FFCD
:1024100000060800000000000000000000000000AE
:10242000000000000000003C4278444242FC0000F2
:10243000000000030202021A26424242261A00004D
:10244000000000000000003844020202443800008E
:1024500000000060404040784442424264D800009E
:10246000000000000000003C427E0202423C0000EE
:10247000000000F08808087E08080808083E0000F0
:10248000000000000000007C22221C023C42423C72
:10249000000000030202023A4642424242E70000C4
:1024A0000000000C0C00000E08080808083E0000A0
:1024B0000000003030000038202020202020221E84
:1024C0000000000302020272120A161222770000B4
:1024D0000000000E0808080808080808083E000068
:1024E000000000000000007F9292929292B70000DC
:1024F000000000000000003B4642424242E700006C
:10250000000000000000003C42424242423C000009
:10251000000000000000001B26424242221E02076B
:10252000000000000000007844424242447840E04D
:1025300000000000000000774C040404041F0000A9
:10254000000000000000007C42023C40423E0000CF
:10255000000000000008083E0808080808300000D5
:1025600000000000000000634242424262DC0000C2
:1025700000000000000000E74224241408080000C6
:1025800000000000000000EB4949555522220000E0
:10259000000000000000007624181818246E0000C7
:1025A00000000000000000E7422424141808080777
:1025B000000000000000007E22100808447E000099
:1025C00000C0202020202010202020202020C0001B
:1025D00010101010101010101010101010101010FB
:1025E0000006080808080810080808080808060077
:1025F0000C32C200000000000000000000000000DB
:102600000000000000001FE01FC06FD077B07030E6
:10261000703070307030703070302010703070302A
:10262000703070307030703067D06FE01FE01FE0A6
:102630000000000000003800780036002E000E0078
:102640000E000E000E000E000400000004000E003C
:102650000E000E000E000E000E000E000E00040014
:102660000000000000003FF07FE07FE03FD000303E
:1026700000300030003000301FD01FE02FE077E046
:1026800070007000700060006FF05FF03FF03FF08E
:102690000000000000003FF07FF07FE03FD00030FE
:1026A00000300030003000303FB07FD07FD03FB0EE
:1026B00000300030003000303FD07FE07FF03FF04E
:1026C000000000000000201070307030703070305A
:1026D000703070307030703037B00FD00FD007B01E
:1026E000003000300030003000300030003000108A
:1026F0000000000000001FF05FF06FF077F0700046
:102700007000700070003F801FC01FC00FB000300D
:1027100000300030003000303FD07FD07FE03FE01D
:102720000000000000001FF01FF06FF077F0700055
:10273000700070007000700077C02FC06FD077B04D
:10274000703070307030703067D06FE01FE01FE085
:102750000000000000003FE07FE07FD03F900030AD
:102760000030003000300030003000100010003029
:1027700000300030003000300030003000300010F9
:102780000000000000001FE01FC06FD077B0703065
:10279000703070307030703077B02FD06FF077B00D
:1027A000703070307030703067D06FE01FE01FC045
:1027B0000000000000001FE01FC06FD077B0703035
:1027C00070307030703070306FB00FD00FF00FB0CD
:1027D00000300030003000303FD07FE07FE03FC06D
:1027E00000000000000000000000000000000000E9
:1027F00060006000200000000000000000000000F9
:1028000020006000600000000000000000000000E8
:1028100000000000000000000000000000000000B8
:1028200000000000000000000000000000000000A8
:10283000000000003C003C003C00000000000000E4
:10284000CFB50000000C3FF8030006380C701FC025
:10285000038C0E0C3FFE0DB60D98199C318C318601
:102860006786CDB30000000018301BFF306036CC07
:102870006CCC7D8619FE18DB30D87FD870DB019BCD
:102880001F9B771FBCE00000000006C036FF36C06B
:10289000378037B03718060C00003FFE36663666C4
:1028A000366636667FFFBFD80000000030603060BB
:1028B00037FF7EFB379E338C3F06380031FC70605B
:1028C0003060306030607FFFA1E6C00023E82C1844
:1028D000D8081008300030003000300030003000E0
:1028E000100018080C1003E00000CEC20000000029
:1028F00000001000000C7FF0044020044020014044
:1029000020027FE0624020324020124020047FE01D
:1029100004000005001004FFF808891078891018D9
:1029200089101889101889101889101889160776C7
:10293000E8000000CAAA0000000000001000100813
:102940007FF80C6010046010016010427FF032606C
:10295000101A6010127FF004690004088005088CCA
:1029600008888C18C8983848901868A01048C0107B
:10297000088030088010088C03F770000000B6C88B
:10298000000000001000000800000C080FFFFC0809
:1029900040000830C008208808209C0FFFE0082075
:1029A00080082080083F8008000019FFE01820C040
:1029B000102080101180100B00200600201B80408A
:1029C00060FE478018000000B5E70000000000002E
:1029D0000018000010000010000010000FFFF008A9
:1029E00010200810200810200810200FFFE0081009
:1029F000200810200810200810200FFFE008100009
:102A000000100800100800100400180C000FF80057
:102A10000000D1B90000000000000000180FFFFC0A
:102A20000C00000C0C000C0C000C0C000C0C000C2E
:102A30000C000C0C000DFFF00C0C000C0C00080C32
:102A400080080C40080C60080C30100C20100C00A2
:102A5000200C0C27F3F0400000000000C1F700003C
:102A60000000080000060008020804FFFC0604003D
:102A7000000400010840411020312030127FD012A4
:102A80000010046460046440046440086440786496
:102A90004018444018444418C44418844419047E1F
:102AA000060400000000A1E6000000000000000095
:102AB000000C0000121F801230681260180CC01841
:102AC0000080080180080180000180000180000171
:102AD000800001800000800000C00000C010006085
:102AE000200038C0000F00000000000000000000BF
:102AF000A3BA000000000000000000000000000079
:102B000000000000000000000000000000000000C5
:102B10000000000000000000001C00001C00000C71
:102B200000000000000000000C00001C00001C0061
:102B300000000000000000000000A3A5000000004D
:102B40000000000000000000070018088030088026
:102B5000600880C0088180088100088200050400A8
:102B60000208000011E00021100041100083100154
:102B700003100201100401100800E0000000000032
:102B800000000000A3D600000000000000000000CC
:102B900000000FC1F00300400300400100800180ED
:102BA0008001810000C10000C300006200006200DB
:102BB0000024000034000018000018000018000075
:102BC0000000000000000000000000000000A3C1A1
:102BD00000000000000000000000000000000000F5
:102BE0000800001800001C00002C000024000066F3
:102BF0000000460000C30000830000FF00010180C8
:102C00000101800200C00200C00F83F0000000003C
:102C10000000000000000000D7D600000000000601
:102C20000000000300000000C0000001C0C000015F
:102C300007C00001FF00021FFE0007F01C0007C0D4
:102C400070000F00E0000E03F0001C0FF0003C0FBE
:102C500070003C00E0001800C0000000C000000050
:102C6000C0000000600000002000000037000001EC
:102C7000FF00007FF80007F830001F803000008060
:102C8000300000C03000006060000018E000000F5D
:102C9000C00000060000000000000000BC2C00087E
:102CA00000000020540000006C010008102D0008F6
:102CB000540000203C0700008801000800000000CC
:102CC0000000000000A24A04000000000000000014
:102CD00001020304060708090000000001020304C2
:102CE00001020304060708090204060800000000A8
:102CF00000000000000000000000000000000000D4
:102D000000000000000000000000FFFF00000000C5
:0400000508000131BD
:00000001FF
